:02000000D32803
:100008008A0183012000921E10280130A4070030C5
:0A001800A53DA63DA73D9212090088
:1000220023009E1816280000112820002F08230004
:040032009A00080028
:0C003600003023009E180130F00008008C
:100042001B207008031D2B284230FD00FD0B2728C2
:0E0052000000212820002E08AF001120080019
:100060002000A401A501A601A7010B30FB0026304A
:10007000FC005D30FD00FD0B3B28FC0B3B28FB0B1F
:100080003B28000000002408F0002508F1002608A5
:08009000F2002708F30008004C
:100098002000AC01AD010A30AE0021202000AC01E7
:1000A800AD0180302D06F00080307002031D5E28FF
:1000B80008302C020318992800302805F500003074
:1000C8002905F60000302A05F700F0302B05F80066
:1000D8001C30F4007508F0007608F1007708F2008B
:1000E8007808F300740803197F28F336F20CF10C32
:1000F800F00CFF3E7728F630700784008030713DA1
:1001080085000008AE0021200430F00070080319B3
:1001180094282000A835A90DAA0DAB0DFF3E8B2809
:0C0128002000AC0A0319AD0A552808009D
:1001340012001E00F003031D9A28F103031D9A28E0
:020144000800B1
:10014600F030210099000C1020000C1421008C10B6
:1001560020008C1421000C1120000C1521008C1598
:1001660020008C1521000C1620000C1621008C1284
:1001760020008C1623000C16220011129116111560
:10018600911791141110121412129216921712133B
:100196002100921622009717171197158B17080042
:1001A600A3200B30FB002630FC005D30FD00FD0B6C
:1001B600DA28FC0BDA28FB0BDA28000000003020D6
:1001C6007008A0007108A1007208A2007308A300BD
:1001D6007008A8007108A9007208AA007308AB008D
:0601E6004C20E228F52880
:1001EC0030343134323433343434353436343734C7
:1001FC00383439344134423443344434453446344D
:020000040001F9
:04000E00E23F1316A4
:00000001FF
