:020000002029B5
:100008008A0183012000111C10280130B00700303C
:0A001800B13DB23DB33D11100900E7
:1000220023009E18162800001128200043082300F0
:040032009A00080028
:0C003600003023009E180130F00008008C
:100042001B207008031D2B284230FD00FD0B2728C2
:0E0052000000212820004208C30011200800F1
:1000600011302000AC000030AD004330AE00003055
:10007000AF00FF30B800FF30B9000030BA000030E8
:10008000BB00FF30B400FF30B5000030B6000030D8
:10009000B7001B30A8000030A9000030AA000030D3
:1000A000AB0023009E1690309D0021008C140C1490
:1000B0002000911E5F2823001908F000582808002E
:1000C0007030210099000C1020000C1421008C10BD
:1000D00020008C1421000C1120000C1521008C151F
:1000E00020008C1521000C1620000C1621008C120B
:1000F00020008C1623000C1620001E131E119E15C6
:100100009E171F149F14181798172100111423000D
:100110009F15CF309B009C011E1530200B178B17AD
:020120000800D5
:1001220020001810B001B101B201B301960197018C
:1001320018140B30FB002630FC005D30FD00FD0B77
:10014200A028FC0BA028FB0BA02800000000181020
:100152003108F7003008F600F401F5011708F10044
:10016200F0017408F0077508F13D7608F23D770852
:10017200F33D1608F0070030F13DF23DF33D700803
:10018200A0007108A1007208A2007308A300080071
:100192002000C001C1010230C20021202000C001A4
:1001A200C10180304106F00080307002031DDB285F
:1001B200083040020318162900303C05F5000030D3
:1001C2003D05F60000303E05F700F0303F05F8002F
:1001D2001C30F4007508F0007608F1007708F20090
:1001E2007808F30074080319FC28F336F20CF10CBA
:1001F200F00CFF3EF4284830700784008130713DD6
:1002020085000008C20021200430F00070080319A4
:1002120011292000BC35BD0DBE0DBF0DFF3E0829C2
:0C0222002000C00A0319C10AD2280800FD
:10022E0012001E00F003031D1729F103031D1729E9
:02023E000800B6
:100240002000A001A101A201A30160200B30FB004E
:100250002630FC005D30FD00FD0B2C29FC0B2C2909
:10026000FB0B2C290000000091207008A4007108ED
:10027000A5007208A6007308A7007008BC007108EA
:10028000BD007208BE007308BF00C9203429472989
:100290003034313432343334343435343634373422
:1002A00038343934413442344334443445344634A8
:020000040001F9
:04000E00A43F1316E2
:00000001FF
